:020000040800F2
:10000000181A002049010008454800084544000826
:1000100000000000000000000000000000000000E0
:100020000000000000000000000000004948000837
:10003000000000000000000047480008A94A00082E
:100040005B0100085B0100085B0100085B01000820
:100050005B0100085B0100085B010008250900083E
:1000600000000000E1080008150900085B01000815
:10007000AD0600085B010008694B0008894B0008C9
:100080005B0100085B0100085B0100085B010008E0
:10009000000000005B0100085B0100085B01000834
:1000A0005B0100085B0100085B0100085B010008C0
:1000B000CD5400085B0100080000000000000000B3
:1000C00000F002F800F030F80CA030C8083824180E
:1000D0002D18671EA246AB4654465D46AC4201D180
:1000E00000F022F87E460F3EB6460FCC0126334282
:1000F00000D0FB1A3343A246AB461847585A0000BB
:10010000785A00000023002400250026103A01D36D
:1001100078C1FBD8520700D330C100D50B607047BF
:100120001FB51FBD10B510BD00F00EFA1146FFF748
:10013000F7FF05F0E1F900F026FA03B4FFF7F2FF4C
:1001400003BC00F07BFA00000748804707480047DF
:10015000FEE7FEE7FEE7FEE7FEE7FEE704480549A7
:10016000054A064B70470000654B0008C1000008B7
:1001700018140020181A0020181600201816002045
:10018000FEB5044610460D46184373D0A6468C466D
:100190000020A41A01469D4167D36646002701242A
:1001A0003D46B61A9D4102D313463A462124654680
:1001B00076462F04360C3E432D0CB61A9D4104D3CF
:1001C000150C1B042B4312041034654676462F068B
:1001D000360A3E432D0AB61A9D4104D3150E1B0262
:1001E0002B4312020834654676462F0736093E43F4
:1001F0002D09B61A9D4104D3150F1B012B43120183
:10020000241D65467646AF07B6083E43AD08B61ACC
:100210009D4104D3950F9B002B439200A41C65467F
:100220007646EF0776083E436D08B61A9D411AD30D
:1002300092185B41641C16E00018764665464941F9
:10024000B71A9D410191009009D36046B11A9841B7
:100250008E468446009801990025401C6941DD07BF
:1002600052082A435B08641EE6D57246634603B013
:10027000F0BDFFE72046284307D00020C0430146D9
:10028000C046C04622462B46F1E700200146F7E76C
:1002900001E004C0091F0429FBD28B0701D50280AD
:1002A000801CC90700D00270704700290BD0C3071B
:1002B00002D00270401C491E022904D3830702D5D4
:1002C0000280801C891EE3E70022EEE70022DFE7C0
:1002D0007047704770470000F0B5FF252D04C60930
:1002E000C209FF2704462E400137CB093E43484050
:1002F0002A402B400746002A6BD0002B69D0AA4227
:1003000067D0AB4265D0002800DA32460125ED0502
:1003100029432C4309022002090AD21A4B0C7F24DC
:10032000E31A434C000A7C44E35C7D242404121944
:1003300014145B00A218884201D3521C00E0400054
:1003400049420C465C4324115C43DB016415E3180D
:10035000040A5C43C502200D0C4644436419250A77
:100360005D432303EC0C0D46654300030019EB18B5
:100370004C42A34201D35B18401CD4052018002B2B
:1003800007D05B00C91804D3401C002901D14008E4
:1003900040003F2189048A4209D3002A08DC110663
:1003A000090F04D0032149074018C00FC007F0BD52
:1003B00001224100120689187F2252069142F6D28C
:1003C00005214907C84201D59010F0BDFF20C005A6
:1003D000F0BD002F00DA32461648AA4207D2AB42DF
:1003E00005D21902090E17D0F80FC007F0BDFF257E
:1003F00063002D06AB42F9D84900A942F6D8AB42BA
:1004000001D1A942F2D0A94201D1002101E061004D
:100410004908D0050843F0BD1102090EFBD0FF20AA
:100420000243D005F0BD0A460146104654E70000DD
:10043000325700000000C07F10B501469E24000224
:10044000CA15A307002A02D01843002A04DBA21A07
:10045000002A0CDDD04010BD1206120E01D1400062
:100460004008A21A03D4D04040420028F3DDFF2206
:1004700048001206904201D9002010BDC817C043A1
:10048000584010BD1F22030C02D10F2200041CD0C3
:10049000030E01D10002083A030F01D10001121F1F
:1004A000830F01D18000921E002801DB4000521E04
:1004B000D2055118021251181922904004D3491C38
:1004C000002801D14908490008467047C10FC907F3
:1004D00000D04042012292071143D3E7012189074E
:1004E000D0E7000010B5FF231B0644009C421DD836
:1004F0004C009C421AD80346124A0B4307D4401AB8
:1005000002D3EFF3008010BDEFF3008010BD081A96
:1005100003D3EFF30080904305E0EFF30080012167
:100520009043C907084380F3008810BD0D231B04C6
:100530001A4204D01146002000F02DF810BD00F042
:1005400041F810BD00000090754600F043F8AE463B
:10055000050069465346C008C000854618B020B55E
:10056000FFF7FCFD60BCB64600260027C0C5C0C52D
:10057000C0C5C0C5C0C5C0C5C0C5C0C5403D49088F
:1005800049008D46704710B50446C046C046204617
:10059000FFF7D3FD10BDC80212D54803400F002855
:1005A00004D0C803C043012188407047EFF30080A6
:1005B0000001000903210907084380F30088704700
:1005C0000020704710B5024800F008F810BD000088
:1005D0000000C07F004870471011002010B50C4685
:1005E0001107090F092904D00A290AD008290CD1BA
:1005F00004E011460820FFF7CEFF06E0510606D5BD
:1006000001E0510601D50120C007214610BDD106E9
:1006100007D501010909CC084907000E000604436B
:1006200009E0410F20024907000A0143200E00069D
:100630001D22D14101430846E7E700000149182087
:10064000ABBEFEE726000200704770B58D18047837
:10065000401CA207920F01D10278401C231106D141
:100660000378401C03E00678401C0E70491C521EA3
:10067000F9D1002B15D002780C2634408A1A401C80
:100680000C2C03D0A401121B9B1C08E0047824024C
:10069000121B401CF8E714780C70491C521C5B1E9E
:1006A000F9D5A942D3D3002070BD000080B58B4896
:1006B00000F03CFF80BDC046B0B50146806A836D46
:1006C000826D5024234206D0D20610D4006D426BB6
:1006D00008469047B0BD01214B021A43826502686B
:1006E000D3681B059B0F05D000F0E8FEB0BD00F0FD
:1006F0001CFFB0BD837E002BF6D113681B07F3D51A
:1007000093685B070AD40346583354680C25AC43FE
:100710005460FF2402341A68A24306E0826D20234D
:100720001343836503465C33C26D0A431A6000F0CD
:10073000C5FEB0BD80B5806A816D40220A438265E6
:10074000C16D04220A43C26500F0EFFE80BD80B592
:10075000806A00F0E9FE80BD70B5054600688168DA
:1007600082680024D20726D00222114023D181685A
:1007700005220A40012A16D18168424A0A40911C8A
:1007800081600321016001F001FD06462868806850
:10079000C00710D001F0FAFC811B28680329F6D3AA
:1007A0008168C907F3D0A86D10210143A965E86DE0
:1007B00001242043E865204670BDC046F0B581B0F5
:1007C00005460024009400688168C9071AD1816831
:1007D0002C4A2F32114208D0A86D10210143A9657F
:1007E000E86D01242043E8650CE08168254A11404A
:1007F00001273943816024480068000205D4687EDF
:10080000012825D1204601B0F0BD204800682049CC
:1008100004F0ACFE401C009000980028EFD0009837
:10082000401E009000980028E9D00098401E0090DB
:1008300000980028E3D00098401E009000980028FF
:10084000DDD00098401E009000980028E7D1D6E740
:1008500001F09CFC064628680168C907D2D181686E
:10086000C90704D18168074A11403943816001F00A
:100870008DFC811B28680329EED30168C907EBD1E1
:10088000AAE7C046E8FFFF7F0827014020100020AC
:10089000400D030010B51D480D49C16700220D4BE6
:1008A0000D4C8165C465036642668463C36302645C
:1008B0007F21C90501614261084C204600F050FAD1
:1008C000D24924310322204601F09EF810BDC046D3
:1008D0000F2DA64017B7D13917B7513AA4110020F0
:1008E00080B5084801F0DAF907480078002807D0F9
:1008F000064800F033F80648C549162203F048FDC3
:1009000080BDC0462C120020101400207C10002056
:100910007C13002080B5024801F0C0F980BDC046BC
:100920008812002080B50120C00301F031FB80BD9A
:10093000EFF3108072B6074C074D0120810320466B
:1009400001F013FCF007800F285A01F0FDFA761C25
:10095000F3E7C046000800501C5B0008F0B587B004
:100960000446808BC830A0832046883005904368B9
:10097000251D2646083627460C37284631463A4676
:100980009847A078032826D3059800688047401E22
:10099000052820D8800002A10A58314638469746DB
:1009A000C7090008B9090008B9090008C109000809
:1009B000C1090008C709000829463846354602E043
:1009C000294630463D460068096804F0EDFE0121E5
:1009D000C9074140296065682562A068014604F0A6
:1009E000E3FE294604F0E0FE644904F077FF60620C
:1009F0001C27E05F04F072FD294604F06FFF0546F6
:100A0000E05F666A04F0A4FD314604F067FF294602
:100A100004F0CAFEE062E05F216A039104F098FDF1
:100A200002900497E05F656A04F058FDE76A216967
:100A3000069166696764A664E166294604F04EFF84
:100A400005460298039904F049FF0146284604F040
:100A50009DFF0546A0623046394604F097FF0646E2
:100A6000E064276D2065A5660698294604F08EFF90
:100A7000039020673046394604F088FFA16B04F0EC
:100A80002DFF0546E06B314604F028FF014628465D
:100A900004F08AFE616D04F087FE07460120C60758
:100AA000A56D069575403846294604F065FE002878
:100AB00000D13D463846069F394604F052FE0028D4
:100AC00000D12F4606976765616FA06F0290E56DB4
:100AD000206E0190039F6767384604F057FF294650
:100AE00004F0FCFE05460198394604F0F7FE014685
:100AF000284604F059FE029904F056FE0546E76FB9
:100B00007E40314604F038FE002800D12E462846AB
:100B1000394604F026FE002800D13746A767049F17
:100B2000E05F04F0DBFC069904F0D8FE0546E05FC8
:100B3000A66F04F00DFD314604F0D0FE01462846B4
:100B400004F024FF2063E05F656D04F001FD294699
:100B500004F0C4FE0546E05FA66F04F0BFFC31461A
:100B600004F0BCFE294604F01FFE014660630598B0
:100B70008268206B904707B0F0BDC0463ACD133F66
:100B8000F0B583B002920191074600201F4E305EFF
:100B90002421715E08182A21715E401AFFF796FC25
:100BA0003F210D06294604F099FE044638600220D4
:100BB000305E2621715E08182C21715E401AFFF705
:100BC00085FC294604F08AFE074601980760204606
:100BD000FFF732FC0E4CA0813846FFF72DFCE08178
:100BE00027460420305E2821715E08182E21715E90
:100BF000401AFFF76BFC294604F070FE0446FFF72D
:100C00001BFC38820298046003B0F0BD7011002014
:100C10000800002044200149085C7047241000208F
:100C2000F0B581B004464420205C411E052900D95E
:100C300090E0256C606BC0467944097949008F4487
:100C400002142B3D5466FFF741FC0646434904F06D
:100C500045FE2946FFF740FB0546E068294604F0BB
:100C60003DFE07466062A06810E0FFF72FFC0646D5
:100C7000394904F033FE2946FFF72EFB0546E068AC
:100C8000294604F02BFE0746E0612069294604F05E
:100C900025FE0146E06250E0FFF718FC06462F49AA
:100CA00004F01CFE2946FFF717FB0546A0682946FD
:100CB00004F014FE0746E061206910E0FFF706FC2F
:100CC0000646254904F00AFE2946FFF705FB0546BE
:100CD000A068294604F002FE0746A061E0682946A4
:100CE00004F0FCFD0146206227E0FFF7EFFB06461B
:100CF0001A4904F0F3FD2946FFF7EEFA054620698C
:100D0000294604F0EBFD0746A061E06810E0FFF71C
:100D1000DDFB0646104904F0E1FD2946FFF7DCFA49
:100D200005462069294604F0D9FD07466062A0689F
:100D3000294604F0D3FD0146A062384604F034FD94
:100D40000146304604F022FE3F21090604F0C6FDAC
:100D50006061206301B0F0BDD7B3DDBFD7B3DD3F25
:100D6000F0B58BB0044600210A915420205C012884
:100D700003D1022528460BB0F0BD0891204654301F
:100D80000125079005702046FFF7E6FC064623681C
:100D90009868A16DC00742D10595029618460830A3
:100DA000812252009143891CA165D968DA68D54F28
:100DB0001740DF609A68D44D2A40521918329A6061
:100DC000FD4A0A4001921946B4310691FB49026876
:100DD000002A2ED50A9A521C0A920A9A8A4200D9EF
:100DE00083E10268002A24D50A9A521C0A920A9AC0
:100DF0008A4200D979E10268002A1AD50A9A521C5F
:100E00000A920A9A8A4200D96FE10268002A10D534
:100E10000A9A521C0A920A9A8A42D8D965E110208D
:100E200001430898079A1070A165354628460BB013
:100E3000F0BD069A12680768ED4D2F4018350395EE
:100E40002F4307607F2504952A400768002F24D58B
:100E50000A9F7F1C0A970A9F8F4200D945E10768C5
:100E6000002F1AD50A9F7F1C0A970A9F8F4200D92C
:100E70003BE10768002F10D50A9F7F1C0A970A9F45
:100E80008F4200D931E10768002F06D50A9F7F1CE9
:100E90000A970A9F8F42D8D927E1069D2F680668D6
:100EA000D34D2E40039D2E430660049D2F40BA185B
:100EB0000668002E24D50A9E761C0A960A9E8E424B
:100EC00000D912E10668002E1AD50A9E761C0A96F1
:100ED0000A9E8E4200D908E10668002E10D50A9EAF
:100EE000761C0A960A9E8E4200D9FEE00668002E05
:100EF00006D50A9E761C0A960A9E8E42D8D9F4E040
:100F0000069D2E680768BA4D2F40039D2F4307604A
:100F1000049D2E40B2180668002E24D50A9E761C29
:100F20000A960A9E8E4200D9DFE00668002E1AD586
:100F30000A9E761C0A960A9E8E4200D9D5E0066863
:100F4000002E10D50A9E761C0A960A9E8E4200D963
:100F5000CBE00668002E06D50A9E761C0A960A9EED
:100F60008E42D8D9C1E0069D2E680768A04D2F405B
:100F7000039D2F430760049D2E40B2180668002E83
:100F800024D50A9E761C0A960A9E8E4200D9ACE0B1
:100F90000668002E1AD50A9E761C0A960A9E8E4274
:100FA00000D9A2E00668002E10D50A9E761C0A968B
:100FB0000A9E8E4200D998E00668002E06D50A9E49
:100FC000761C0A960A9E8E42D8D98EE0069D2E681F
:100FD0000768874D2F40039D2F430760049D2E40D7
:100FE000B2180668002E21D50A9E761C0A960A9E23
:100FF0008E427AD80668002E18D50A9E761C0A966C
:101000000A9E8E4271D80668002E0FD50A9E761C65
:101010000A960A9E8E4268D80668002E06D50A9E59
:10102000761C0A960A9E8E42DBD95EE0069D2E68EB
:1010300007686F4D2F40039D2F430760049D2E408E
:10104000B2180668002E21D50A9E761C0A960A9EC2
:101050008E424AD80668002E18D50A9E761C0A963B
:101060000A9E8E4241D80668002E0FD50A9E761C35
:101070000A960A9E8E4238D80668002E06D50A9E29
:10108000761C0A960A9E8E42DBD92EE0069D2E68BB
:101090000768574D2F40039D2F430760049D2E4046
:1010A000B2180668002E31D50A9E761C0A960A9E52
:1010B0008E421AD80668002E28D50A9E761C0A96FB
:1010C0000A9E8E4211D80668002E1FD50A9E761CF5
:1010D0000A960A9E8E4208D80668002E16D50A9EE9
:1010E000761C0A960A9E8E42DBD9089807990870EA
:1010F000A06D1021014302208143A165059D284672
:101100000BB0F0BDFC7FFFFFE8FFFF7F0699096889
:101110009E68374D2E4001252E439E60049E31402F
:101120008918C9081A69920F29D10F229204DD4B40
:101130001B6813409A0C072A21D3D21E0123934027
:101140000993099A52080992099A002A17D0099A14
:10115000521E0992099A002A11D0099A521E099228
:10116000099A002A0BD0099A521E0992099A002A5C
:1011700005D0099A521E0992099A002AE7D1069BC6
:101180001A68049EB2430A431A600168184A114063
:1011900002273943016000F0F9FF0690206881685A
:1011A000C907029E0FD1C168019A1143C160A06DA9
:1011B00001210143B94334E603800000FFF102003E
:1011C0008168C907EFD000F0E1FF0699411A206855
:1011D0000329F5D38168C907F2D0A06D102101431E
:1011E000A165E06D2843E06528460BB0F0BDC04620
:1011F000E8FFFF7F7047704770477047F0B589B0D0
:10120000002508955422825C012A03D1022420463D
:1012100009B0F0BD06465436012434700268936864
:101220005B0714D404694B68022B18D104200443D3
:101230009A4884426FD19848C0430B68D943014310
:10124000906A084090620024002B75D567E0816D9C
:1012500020220A4382653570204609B0F0BD07960A
:101260000693042634438C4B8C4FBC4268D10F68E4
:101270003B40906A184390623802536983438968FF
:10128000014087480840184350610024002F04D4CF
:10129000079E3570204609B0F0BD012681483B46C7
:1012A000076807208205394611407F480293834230
:1012B00000D08CE0F0053B46034000D087E0794F3A
:1012C0003B6893431943014339607A4800687A497F
:1012D00004F04CF90C2141430C3108910898002886
:1012E000D6D0079E0898401E08900898002823D062
:1012F0000898401E0890089800281DD00898401EA5
:1013000008900898002817D00898401E0890089860
:101310000028E7D110E00B680024002B0CD56148B1
:101320000168624A93426ED0614A93426ED05E4A2F
:10133000934201D1052267E03570204609B0F0BD27
:10134000029605951F27069C27400F2500950397B9
:10135000BD40046E0195AC4304940F681F424ED00B
:10136000FB07059D2C4663D1BB075CD47B075CD48F
:101370003B075CD4FB06029C5AD4BB066BD47B06AD
:101380006BD43B066BD4FB056BD40297BB056AD4C8
:10139000029B5B056AD4029B1B056AD4029BDB049B
:1013A0006AD4029B9B046AD4029B5B046AD4029FAA
:1013B0003B04009C059D3BD4FB0366D4029B9B032E
:1013C00066D4029F7B03DB1712241C4019E03748C8
:1013D000029B834203D130063B46034008D0344889
:1013E000029B834200D053E7B005074000D04FE78F
:1013F0002C4F3B68934319430143396048E77B0016
:10140000DC0E059D14E00322920501E00322D205C3
:101410001140072292050368934359180160357003
:10142000204609B0F0BD012402E0022400E00324BC
:10143000039EB440049B1C430466069B9B08C06942
:10144000984200D818E70198C043936A0340B80057
:10145000000FB0400EE70524EAE70624E8E707247A
:10146000E6E70824E4E70924029FCAE70A24029F6A
:10147000C7E70B24029FC4E70C24029FC1E70D2499
:10148000029FBEE70E24029FBBE71024029FB8E72D
:101490001124029FB5E7C046FFFF0700040000804B
:1014A00000FFFF0708270140001000B0004000B80F
:1014B000002000B420100020400D0300B0B51748F4
:1014C0000278072A28D8511C017015480188C38862
:1014D0005918C18043880489E318038184884589A9
:1014E0002C194481072A12D122B2520FA21812B22B
:1014F000D20842811AB2520F9A1812B2D20802814F
:101500000AB2520F891809B2C908C180B0BD054896
:101510000349032200F078FAB0BDC046A0110020B4
:1015200094110020A411002070477047F0B585B0D9
:101530000446006805680227294639404A424A4164
:101540004668314639404B424B41134303950DD118
:10155000A06DC00604D40120C002A16D0143A165A5
:101560002046FFF748FE20680760039D019701278A
:1015700004223240514251416A073A462B4600D577
:101580000A4679020291012A049709D108223240C1
:10159000514251411A073A4600D50A46002A2FD136
:1015A00021465831A26DD20603D40A68029B1A4321
:1015B0000A60C2681205920F1BD1A27E002A18D1C0
:1015C0000268120715D58268520708D442680C23B6
:1015D0009A434260FF2202320868904306E0A06D01
:1015E00020210143A16521465C31E06D01220243C7
:1015F0000A602046FFF762FF20680C210160039B10
:10160000802532462A40514251411A06049A00D59B
:101610000A46002A0AD101200004A16D0143A165F8
:10162000204600F089F9039B2068056001252F0200
:1016300032463A4051425141DA05049A00D50A46F1
:10164000002A09D16804A16D0143A1652046FFF776
:10165000D3FD039B206807603246029F3A40514207
:1016600051413B42049A00D00A46002A09D1A804FD
:10167000A16D0143A1652046FFF7BFFD039B2068D4
:101680000760102732463A4051425141DA06049A27
:1016900000D50A46002A13D1216B002902D0C16867
:1016A00089070CD0A802A16D0143A165E06D0199E5
:1016B0000843E0652046FFF738FF039B206807607A
:1016C0006D032E4070427041990404D404980028A0
:1016D00005D005B0F0BD049004980028F9D120464B
:1016E000FFF788FD2068056005B0F0BDF0B589B052
:1016F000044600200890002C77D00790A06D0028A9
:1017000007D125465435204600F018F900202870EE
:10171000E06501273D072668B068C00027D4B0689F
:101720007F4901402943B1607E4800687E4903F04B
:101730001DFF4000801C08900898002817D00898CA
:10174000401E08900898002811D00898401E089064
:10175000089800280BD00898401E08900898002888
:1017600005D00898401E089008980028E7D1B06876
:10177000284208D1A06D10210143A165E06D01212F
:1017800007910843E065B06804210140A26D102074
:1017900002405118A16D2BD106900F20C7433A4645
:1017A000F33A1140891CA165B168C9077DD1039046
:1017B000049727462037216B4A1E91410D03A168EB
:1017C000227E92030A43617EC9031143A27E500325
:1017D0000843E36803432B430120C507216900291F
:1017E0000590029509DAA94308E0012009B0F0BD8F
:1017F0000143A165384609B0F0BD41050B43387B74
:1018000045001D433878012809D1002A11D0A06D68
:1018100020210143A165E06D05990843E065626AF6
:10182000002A0CD0072080010240A16A11432943FD
:1018300006E0059800040543626A002AF2D12946B1
:10184000F0683A4A02400A43F26003208207636864
:101850001D461540E16C387F01280ED1206C0090A8
:10186000676CA06C019000980743019807432F43D1
:101870000F43059807433D4600E00D43049F306940
:101880002B490140294331610298834203990CD0CE
:1018900093420AD005988007834206D0880403400B
:1018A00024490A688243D01808607069072290436F
:1018B000656B28437061706970218843A16B0901D1
:1018C00001437161216901235805814203D0002938
:1018D0000BD1B06A07E0B06AE06980001C301C21BF
:1018E00001408F40206E3843B06270691040A842BA
:1018F0000AD10020E065A06D01210143022081434F
:10190000A165079809B0F0BDA06D069908430221B2
:101910008843A065E06D1843E065184609B0F0BD46
:10192000E8FFFF6F20100020400D03000102DEFFE2
:1019300002FCFF1F0827014070470000F0B591B07E
:101940000446002610960F9602A8001D2421FEF7DB
:10195000BDFC20682849884201D011B0F0BD009438
:101960000127B8070990B803029002A800F0DAFC3A
:10197000002801D0FEF7DCFF38052049CA68024381
:10198000CA60CA680240019201980868384308603A
:101990000868384001900E9603200D9071200C903D
:1019A0000198052420070CA900F008FB3803144D0A
:1019B00028622020B9023A028023124F2F606C6007
:1019C000AE60EE602B616A61A961E861284600F0B3
:1019D000D5F9002801D0FEF7ABFF0098A862056595
:1019E0000C2401210022204600F040FC204600F09B
:1019F00031FC11B0F0BDC04600240140341002405B
:101A00002C12002008000240F0B581B00E460446BA
:101A100001688B6802205B071BD400925422A25CF1
:101A2000012A16D02746543701253D70C868C007E3
:101A30000AD18868C00704D08868194A0240901CFF
:101A40008860C8682843C8602046FEF7B7FE0028B3
:101A500001D001B0F0BDA06D124901402802081864
:101A6000A0650020E06521681C220A603870206DA6
:101A70000D4A0E4B0E4DC562036342634A68102344
:101A800013434B6040313246009B00F0F7F9216868
:101A90008A68034B13401A1D8A6001B0F0BDC0462E
:101AA000E8FFFF7FFEF0FFFF350700084F07000843
:101AB000B906000870B503460120CC0720D0114CB0
:101AC0000C40651EAC4103261546F541032D17D881
:101AD0007D442D796D00AF440B0105090B4C0C4082
:101AE0000ED105E0084C0C400AD101E0002C07D1D2
:101AF000186841618168182399431143816000206F
:101B000070BDC04680FFFF7F00FFFF7F0000FF7FAA
:101B1000B0B50125002814D00446407F002804D128
:101B200000202077204600F031F8022060772079ED
:101B3000002808D0A168E2682046FFF7BBFF002814
:101B400008D02846B0BD20680F494161816818223D
:101B50009143816000256079002801D0216900E06F
:101B6000E9432068016181686022914362690A4308
:101B70008260816880229143A2690A4382600120C9
:101B800060772846B0BDC046B71DC10481B000686B
:101B90000849884201D001B070470120000306497E
:101BA0000A6802430A60096801400091009801B088
:101BB0007047C046003002403810024070B500281F
:101BC0002CD0014624314A78022A29D1046822689F
:101BD0000E239A432260426C15682F4B1D401560FE
:101BE0002568012295432560046C1C252540144678
:101BF000AC40D44D2E6826432E60846CC56C656065
:101C0000046D002C05D025681D402560436D806D56
:101C100058604A70002000220A7070BD012070BD1B
:101C20000422C263012000220A7070BD70B5014613
:101C300024314A78022A2BD103681A680E24A24361
:101C40001A601C68012294431C60446C2568124B86
:101C50001D402560046C1C2525401446AC40B94D40
:101C60002E6826432E60846CC56C6560046D002C64
:101C700005D025681D402560436D846D5C6000249F
:101C80000C704A70816B002900D08847204670BDD7
:101C90000421C163012070BDFFFEFFFFF0B585B0D8
:101CA000A849091F0E6802681368042502932B4097
:101CB0005F425F410490046C1C23234029469940F5
:101CC0000C460396344060426041384331D0019263
:101CD00001210227029E30463840444244419F4041
:101CE000039D2F420A4600D021460498044624341E
:101CF00000292FD00820064077427741DD40280791
:101D000000D53A46002A23D1019A10680E21884353
:101D100010600125294699408A4802680A430260FA
:101D20000498C563002121706570416B00290ED1B4
:101D30000EE01068800602D41068A8431060814A43
:101D40001068084310600498016B002900D0884790
:101D500005B0F0BD019B1968890605D41A680A21EF
:101D60008A431A600121617000212170754A11684F
:101D700039431160C16A0029E9D1E9E7F0B587B0BC
:101D800000284AD0044601462431022006914870BA
:101D900027683868344901403960344E3046803015
:101DA000A064334838181425294603F0DFFB80006F
:101DB0008119206405916164FC2038400838294667
:101DC00003F0D4FB1F23034001210A469A40E2643A
:101DD000A0680490E5682646103649CE0196E6696B
:101DE0000296266A039628431843019B18430E4621
:101DF000029908430399084339680143049B194336
:101E00003960B1031B488B420AD1002305990B604E
:101E1000636002601D461A461CE0012007B0F0BD59
:101E200061683F270F40059B1F600260491E002329
:101E300003291D461A460DD8791E8A0083180022F0
:101E4000DA6703250D403246AA400B490A607C330D
:101E5000BC3005460020E06323656565A2650699F0
:101E600008704E7007B0F0BD0F80FFFF0008024001
:101E7000F8FFFDBF8408024044090240F0B582B07B
:101E800004462420205C012802D1022002B0F0BDCB
:101E9000174625462435012028706A78012A2ED15C
:101EA000022068700020E06325682A6801260196F8
:101EB000B2432A60A26CE66C5660226D0092002A42
:101EC00002D0626DA66D5660226C1C261640019AE7
:101ED000B2401C4E366816431A4A16606B60A368FF
:101EE000102B3A4600D00A46AA60102B00D0394683
:101EF000E9602968226B002A07D00E220AE000213F
:101F000029708021E16302B0F0BD04229143296071
:101F10002A680A211143296001990902626C136839
:101F2000DB0302D513680B431360009B002B02D028
:101F30001A680A431A602968019A1143296002B09D
:101F4000F0BDC04604000240B0B5044600F01EF9E2
:101F50000546601C02D0AF480078041900F016F95D
:101F6000401BA042FAD3B0BDB0B50121C9038842DD
:101F700009D1054D2878444244418020034909583D
:101F8000204688472C70B0BD101400207C10002023
:101F9000B0B50446074D2868204203D02C60204687
:101FA00000F00AF86868204203D06C602046FFF712
:101FB000DBFFB0BD0C18024070470000F0B58AB0DE
:101FC0000A68002A00D1BEE00E466049884201D06E
:101FD000052100E0032100910027089709973C465E
:101FE000029601900FE01A432A60641C3268114681
:101FF000E140BF1C089B1B1D0893099B08330993F4
:10200000002900D19FE001250495A5402A400792B0
:10201000EBD003231846B840C043394677683A46A8
:102020001A40561E012E0697059112D806460390B7
:10203000019883683340029EF6688E401E43866096
:10204000FB06DB0FA3404668AE431E434660039980
:1020500008E0032A0146019804D11A46029E069D13
:10206000059F1DE0C3680B40029EB568059FBD40FB
:102070001D43C560022A069D12D103911C21089AB6
:1020800011400F228A40E3089B00C3181D6A954344
:1020900032698A4003992A431A62756803222A40EA
:1020A000BA4003680B4013430360A903890F9CD017
:1020B0001821099A11400F238B400322254695438E
:1020C000234A5219156E9D43603205231B0798421F
:1020D0000AD0214B984205D0204B9842009B04D156
:1020E000022302E0049B00E000238B402B4313609B
:1020F000174D2A687168CB0208D5079B1A432A60DE
:102100006A688B0208D4079B9A4307E0079B9A43AF
:102110002A606A688B02F6D5079B1A436A600D4DE8
:102120006A688B0306D5079B1A436A602A68C9034D
:1021300007D558E7079B9A436A602A68C90300D508
:1021400051E79A4350E70AB0F0BDC046000C00507A
:10215000001802408018024000040050000800509F
:1021600000690840411E8841704742690B4693430D
:102170000A401104C91881617047002A02D0182250
:102180008150704728228150704700000548006840
:102190007047C0461F48007802490A681018086056
:1021A0007047C0461414002010B5012420020849CD
:1021B0000A6802430A60032000F00CF8002801D0EE
:1021C000204610BD00F028F80024204610BDC0466F
:1021D0000020024070B50F4E31780124002916D03E
:1021E00005467D20C00003F0C1F901464B48006858
:1021F00003F0BCF900F0FEFC032D08D8002806D13E
:102200000024E0432946224600F030F8756020465D
:1022100070BDC0460000002080B582B00C48416807
:102220000122114341604168114001910199110758
:1022300002680A4302600068084000900098082085
:1022400000F0D0FC102000F0CDFC02B080BDC046F4
:102250003C100240002805D41F2108400121814084
:10226000014801607047C04600E100E0002805D445
:102270000322034693430A4A9A1803E00C220240C1
:10228000064BD2188007C00E8901C9B28140FF23D6
:1022900083401068984308431060704714ED00E0D5
:1022A00000E400E0F0B581B0032569021A4E324621
:1022B000143A13688B430343136001246102002224
:1022C000884226D1154801683068400521D5009222
:1022D000A70206204843124903F048F9201A0228B1
:1022E00016D0316839420FD0012811D031683942F7
:1022F0000AD000280CD03168394205D0001D0328CF
:1023000006D031683942EAD1009A104601B0F0BDDA
:102310002A46104601B0F0BD147000402010002085
:1023200040420F00F0B587B0817889076A4F01D429
:1023300000254FE00590012319073A46183A106826
:102340000840049006D110680843106010680840E7
:10235000069006980292039101931E025F4C20683A
:1023600030432060FFF712FF0546206830420AD153
:10237000FFF70CFF401B0228F7D9032505980499A5
:10238000002922D026E003252902B868084011D090
:102390000599496A88420BD0B86801990904BA685E
:1023A0000A43BA60BA688A43BA604D490840B860C7
:1023B000C0077ED1BA684A4802400598416A114375
:1023C000B96000250499002904D1029B1968039A79
:1023D000914319600668F1070BD1F10611D4B105DC
:1023E00018D471051FD4B10626D4012172042DD44E
:1023F0003BE039680322914342680A433A60F106A0
:10240000EDD5032189023A688A4381681143396016
:10241000B105E6D5032189043A688A43416911432D
:1024200039607105DFD5032109053A688A4381695E
:1024300011433960B106D8D5032109033A688A43AC
:10244000C16811433960012172040ED53A68254BE9
:102450001A40C46922433A605A1C944205D10A04C6
:102460003B46483B1C6814431C60B2020DD58A05EC
:102470003B689343046A23433B60944205D10A06B8
:102480003B46483B1C6814431C6032050ED58C0348
:10249000032292033B689343026913433B60A242C9
:1024A00004D10804483F396801433960284607B021
:1024B000F0BDFFF76BFE0646864CB868800700D576
:1024C00078E7FFF763FE801BA042F6D905980499D0
:1024D000002900D179E77DE75410024000700040E8
:1024E000FFFCFFFFFFFFFF3FF0B583B00D4601216A
:1024F00000281BD0019102907548006807242040F5
:10250000A84216D272490868A04328430860714E59
:10251000FFF73CFE07466E4800682040A84208D0FE
:10252000FFF734FEC01BB042F5D90321084603B0C3
:10253000F0BD029E30688107914B0CD5410703D551
:1025400021031A680A431A600F2109021A688A4394
:10255000B16811431960C0071BD15D480068204075
:10256000A8422CD95A490868A04328430860594F0B
:10257000FFF70CFE0646564800682040A8421ED0D1
:10258000FFF704FE801BB842F5D90321084603B0CB
:10259000F0BD0298406803285DD8810001A251581F
:1025A0008F46C046B52500085B2600086526000852
:1025B0006F260008194608390968490559E0029A4A
:1025C000107840076E4B05D5200319688143D06809
:1025D0000843186018688006400F22D01A68382116
:1025E0000A406848082A23D01A680A40102A5ED197
:1025F000596803220A40032A00D0634859684906F3
:10260000490F491C02F0B2FF5D4949684904490E6F
:1026100048435B494968490F491C02F0A7FF584BE2
:1026200006E01846083800688004410F5648C84044
:10263000196889093C220A40274989581F220A4003
:10264000D0402E49086025480068FFF7C3FD0146C9
:10265000084603B0F0BD596D0AE01946083909680B
:10266000890306E0194608390968890101E0996D76
:102670008907019900D459E71968A14301431960FA
:10268000144FFFF783FD06463D480068382101409E
:1026900002984068C000814200D15EE7FFF776FDF6
:1026A000801BB842F0D90321084603B0F0BD18687A
:1026B0000840202802D10120C003B9E7186808406B
:1026C000182801D00020B3E77D200002B0E7C04603
:1026D0000020024088130000A45A000804000020D3
:1026E0000648006826490968890A1C220A400449EC
:1026F00089581F220A40D0407047C0462010002051
:10270000E45A000810B51E4C20688006400F06D021
:10271000226838210A401B48082A07D110BD083C0E
:1027200020688004410F1848C84010BD22680A4044
:10273000102A15D1616803220A40032A00D01248EA
:1027400061684906490F491C02F010FF616849049D
:10275000490E48436168490F491C02F007FF10BD4C
:1027600020680840202802D10120C00310BD206845
:102770000840182801D0002010BD7D20000210BDA7
:102780000810024000127A000024F400F0B587B06F
:102790000125002800D1F9E1049505900078C007D3
:1027A000FC4F2AD0B868F96803252A468A433821A5
:1027B000014010204840821850425041082914D04E
:1027C000002812D105984268012001048A4208D0ED
:1027D00005231B049A4200D005E182043B681343A1
:1027E0003B603A680A433A6006E13868800304D5E2
:1027F00005984068002800D150E1059800788007CE
:1028000016D405980078000745D4059A107840073B
:102810004ED4D469002C00D19EE1B8683821014023
:10282000102900D0B6E0012C00D010E1049DADE1EC
:10283000B9683820084010214140FA680326324028
:1028400002235340CA18514251410125AC020028CD
:102850003AD0002938D13868059AD168002900D1CA
:10286000D8E00721C9028843116901433960280271
:10287000396801433960FFF789FC05463868204212
:1028800000D0DAE0FFF782FC401B0228F6D935467B
:10289000284607B0F0BDB8683821014018293BD15F
:1028A000386E8007B1D5059880690028ADD1F5E074
:1028B000B86838210140202945D1F86D8007A8D596
:1028C00090680028A5D1E9E039682142059B03D032
:1028D000D968002900D159E17F2109027A688A4329
:1028E000596909021143796000280DD10720C002FF
:1028F0003968814318690843386038688004400F9C
:10290000B149C140B1480160B1480068FFF762FCBD
:10291000002800D03AE174E7386E059989690029EA
:1029200000D1CAE0012108433866FFF72FFC0646B4
:10293000386E800700D568E7FFF728FC801B032569
:102940000228F5D922E1012003900107F86B084025
:10295000029006D1F86B0843F863F86B08400690C4
:10296000069801919B480068C0052BD40398040287
:102970009849086820430860FFF708FC0646954818
:10298000006820421ED1FFF701FC801B03250228AE
:10299000F5D9FBE0012529063868049188433860A1
:1029A000FFF7F4FB0646022C7CD103956C063868D1
:1029B000204200D1A0E0FFF7E9FB801B032502289D
:1029C000F5D9E3E005988068834C012806D00528F6
:1029D00000D0C5E0F86D04210143F965F86D039955
:1029E0000843F865C6E03B688B433B6081043B6865
:1029F0008B433B60002A71D04404FFF7C7FB0646B7
:102A00003868204200D0F8E6FFF7C0FB801B64283E
:102A1000F6D9BBE0290288433860FFF7B7FB0546CB
:102A20003868204200D1ECE6FFF7B0FB401B0228DB
:102A3000F6D93546284607B0F0BD7F2000027968F8
:102A4000814305984069000208437860D9E6F86838
:102A500003210140059B1A6A91421FD17021014058
:102A60005A6A91421AD17F21090201409A6A1202E0
:102A7000914213D11F2149040140DA6A91420DD1DC
:102A800007214A0602401C461B6B9A42049D7DD1D9
:102A900049070840616B884278D15DE0049D284673
:102AA00007B0F0BD6C063868204251D0FFF76EFBCE
:102AB000801B03250228F6D968E001218843386687
:102AC000FFF764FB0646386E800700D49DE6FFF7EB
:102AD0005DFB801B03250228F5D957E04404FFF76E
:102AE00055FB06463868204200D186E6FFF74EFBCC
:102AF000801B6428F6D949E0F868394901400598F7
:102B0000026A456A836AC66A0196066B0296406B42
:102B10000A432A4319021143019A1143029A1143AD
:102B20000143F96038680499084338600398000746
:102B3000F9680143F960FFF729FB0646386820422F
:102B40000AD1FFF723FB801B03250228F6D91DE0DD
:102B5000F86822490140F9600025284607B0F0BD19
:102B6000F96D039A9143F965F96D04229143F96572
:102B7000002811D0FFF70AFB0646F86D800718D42D
:102B8000FFF704FB801B0325A042F6D9284607B0B7
:102B9000F0BDC04600100240FFF7F8FA0646F86D97
:102BA000800706D5FFF7F2FA801B0325A042F6D96D
:102BB000ECE702980028059A00D02AE6F86B019904
:102BC0008843F86325E6C0460024F4002010002066
:102BD000040000200070004088130000FCFFFEEE9F
:102BE0008C80C11102490A6802430A607047C046DE
:102BF00000000140401E010E01D00120704707492E
:102C0000074A5060074803680B4003218907591899
:102C1000016000209060072111607047FFFFFF00F6
:102C200010E000E020ED00E07047704770470000C2
:102C3000F0B53C22825C012A01D10220F0BD02469F
:102C40003C323F231B02CC689C430F239B028D68C0
:102C50009D4325434B681D4C1C402C430B681C4D69
:102C60001D4025430B691B4C1C402C434B692343DF
:102C7000194C1C400B6B194D1D402543CB692B4350
:102C80008C692404164D25401D430368AC488342DB
:102C900004D02C46002010705C64F0BD1148054043
:102CA0000E46203651CEC96A36050F4F37402F43A6
:102CB00011256D06A843384301256D07AC43044335
:102CC0000C43002010705C64F0BDC046FF87F0EF3D
:102CD000FF8FF0EFFF9FF0EFFFBFF0EFFFFFF0EF90
:102CE0000000FFEFFFFF0FDC0000F0DCF0B58BB061
:102CF00000285CD00D46044606463C363E30029025
:102D00002046443003907078002804D100203070B1
:102D1000204600F055F8022070702068211D01F057
:102D20003BFFAB6829682068032201F0DBFF2068C5
:102D300081690C2291438161696882690A438261D9
:102D4000416880220A43426081681B4A0A408260CF
:102D5000816840220A4382608168184A0A40826082
:102D6000816804220A43826001960026099608962B
:102D70000A967027049707960696E968059104A9B4
:102D800001F06EFF20684168B943416041685022FC
:102D90000A434260012003990871029A1070507032
:102DA000087048700199487030460BB0F0BD01269C
:102DB00030460BB0F0BDC0468FFFCFFFF8FFFEFFDF
:102DC0007047000070B505463E20295C0124614033
:102DD00028463E30427862400A4344216B5C63409F
:102DE0001343294644314A7862401A43120620D1DF
:102DF0000222027042700A704A702868C16811434A
:102E0000C160002401262146324601F01BFF2868DC
:102E1000B107884205D0E049884202D0A0498842E3
:102E200009D1826847491140062902D032049142F3
:102E300001D1204670BD016831430160204670BD5C
:102E400070B53C22825C012A01D1022070BD02468D
:102E50003C3202235370006845688368E44CA0420A
:102E600001D02E4604E00F263605B5434E682E43AA
:102E70007025AE430D68354345600125AE07B0426D
:102E800004D0A04202D0DB4CA04204D18024A34352
:102E900089681943816000201070557070BDC0466C
:102EA00010B502464432002908D008290CD0042964
:102EB00010D1531C1B78012B0AD10FE01378012B82
:102EC00006D10223137013E0931C1B78012B05D04D
:102ED000012010BDD31C1B78012BF9D10223082936
:102EE00003D0042903D1537002E0937000E0D37043
:102EF0000F22114004228A400168086A9043086248
:102F0000086A104308620122D0034B6C03434B64F0
:102F10009007814205D0B648814202D0B54881422F
:102F200008D18868B44B03400020062B06D0140457
:102F3000A34203D0086810430860002010BDC046BB
:102F4000002C014007000100B0B50F220A40042305
:102F500093400268146A9C431462136A1362146AF1
:102F6000B34B1C4203D1146AB24D2C420BD0146AED
:102F70001C4210D1136AAF4C23420CD113680124B8
:102F8000A343136007E00124E403556CA543556493
:102F9000146A1C42EED04430082907D0042909D015
:102FA00000290BD1012101700020B0BD01218170E9
:102FB0000020B0BD012141700020B0BD0121C170D1
:102FC0000020B0BD70B5002828D0044605463C3529
:102FD0006878002804D100202870204600F06AF8A4
:102FE0000220687021680E6801208307994205D08D
:102FF0007F4A914202D07F4A914211D1702296437A
:10300000A2683243274EB1420EDC994215D0794B6B
:10301000994212D0264B99420FD03FE0012070BD5B
:103020003246204EB142F0DD714B994205D01E4B25
:10303000994202D01D4B994230D103231B029A437F
:103040002369134380229343A2691A430A60E2680A
:10305000CA6262688A62664A914205D0124A914207
:1030600002D0124A914201D162690A6322463E327D
:10307000443448610B69DB0702D00B6983430B6161
:103080002071107050709070D0701071507120705D
:103090006070A070E0706870002070BD1346D1E7CA
:1030A00000040040FF2B0140004801400044014063
:1030B00000200040F0B58FB004466846001D242172
:1030C000FDF704F920680127B907884219D048495B
:1030D00088425FD1780500906846FFF723F9002801
:1030E00001D0FDF725FCF8022C49CA680243CA60EA
:1030F000C96801400A910A980E26002130460A4606
:1031000043E02648816839438160816839400A91EB
:103110000A990168042211430160016811400A9173
:103120000A99016839430160016839400A910A9996
:103130000168022421430160006820400A900A9837
:103140000E9400250D950C950B9440200A90A948EB
:103150000AAE3146FEF732FF0E940D950C950B9496
:10316000F8030A90052000073146FEF727FF0E946A
:103170000D950C950B9408200A90A0483146FEF757
:103180001DFF0F26304621462A46FFF76FF83046CE
:10319000FFF760F80FB0F0BD002C01403410024082
:1031A00010B53D21415C01291BD101463D31022270
:1031B0000A700168C86801221043C8609007814204
:1031C00005D00B48814202D00A4881420BD1886861
:1031D000094B03400020062B02D01404A34202D165
:1031E00010BD012010BD086810430860002010BD0C
:1031F000002C0140000400400700010010B50268E7
:10320000D36801218B43D360136A094C234203D056
:103210003D228154002010BD136A064C2342F7D191
:1032200013688B4313603D228154002010BDC046BB
:103230001111000044040000F0B53C22825C012A18
:1032400001D10220F0BD02463C32022353700468D3
:10325000A0684E4B0340A3600D6800234F2D1EDC79
:103260001F2D37DD202D39D0302D37D0402D00D007
:1032700087E0206A256A0126B5432562A569F02604
:10328000B543CE6836012E43A6610A25A843496896
:1032900001432162A0683E49014047316BE06F2D38
:1032A00028DD01204603B54240D000038542184680
:1032B0001CD0702D65D1FF200002A56885434868A9
:1032C0008E68C9680643080230432843A060A0689E
:1032D000772139E0002D01D0102D52D1A0682C4962
:1032E00001400D4307202843A060184613700121B8
:1032F0005170F0BD502D29D0602D42D1206A256A31
:103300001026B54325620F252D03A669AE43CD686F
:103310002D033543A561A025A84349680901014350
:103320002162A0681A490140673124E0FF252D027F
:10333000A668AE434D688F68C9682F4309023943B8
:103340003143A1608003A168014314E0206A256A2B
:103350000126B5432562A569F026B543CE6836013E
:103360002E43A6610A25A843496801432162A0684B
:10337000074901405731A16018461370012151706F
:10338000F0BD0120137001215170F0BD8800CEFF07
:1033900088FFCFFF10B5017F042911D002291AD070
:1033A000012922D11648002100F010FD0446052015
:1033B00000070121C903FEF7D3FE0F49C87014E0CE
:1033C000082100F003FD04460A484021FEF7C8FE2C
:1033D0000949487109E0042100F0F8FC0446074857
:1033E0000821FEF7BDFE0449087103484482210C00
:1033F000818210BD00080050080000200004005029
:1034000030130020F0B583B004460068C568022779
:10341000294639404A424A410169029139404B42AA
:103420004B41134313D16C49FE31016101212177D6
:103430008069800703D02046FFF7ACFF05E02046F7
:1034400000F0CEF8204600F0FAFA0020207701269E
:103450000422294611404842484102994907314611
:1034600000D50146032000020190002916D10092E8
:1034700020685949FC310161277780690199084228
:1034800003D02046FFF786FF05E0204600F0A8F8AD
:10349000204600F0D4FA00202077009A0827294619
:1034A00039404842484102990907314600D5014652
:1034B000002913D120684849F83101612277C06999
:1034C000800703D02046FFF765FF05E0204600F0A7
:1034D00087F8204600F0B3FA002020771021294019
:1034E000484248410299C906314600D501460029A3
:1034F00014D120683849F03101612777C0690199FA
:10350000084203D02046FFF745FF05E0204600F0C3
:1035100067F8204600F093FA002020770121294027
:10352000484248410299C907314600D00146002966
:1035300006D120682849FF310161204600F044FC93
:1035400080272F40784278414121C901029A0A42DE
:10355000314600D00146002905D120681F4901618C
:103560002046FFF762FB784278410299C90531464F
:1035700000D50146002905D1206817490161204680
:10358000FFF752FB40212940484248410299490631
:10359000314600D50146002906D120680E49C031C8
:1035A0000161204600F02EFC202005406842684161
:1035B0000299890603D4002E04D003B0F0BD06465C
:1035C000002EFAD120680449E03101612046FFF75E
:1035D0002DFB03B0F0BDC046FFFEFFFF7FDFFFFF06
:1035E00070470000F0B582B03C23C35C012B02D1D0
:1035F000022002B0F0BD03463C330224E241052A1A
:1036000029D8C0467A4412795200974402293F567D
:10361000738F0268106A156A0126B5431562A043CC
:103620008E68064350680C6801949569C14FBA4290
:1036300006D0C14CA24203D0C04CA24200D0C8E088
:103640000C24A643CC680427BC43F84F3443BA4249
:1036500000D0C1E0C7E001200021197002B0F0BD28
:103660000268106A146A1025AC4314622024A04337
:103670008C682701074350680C6801949469EB4DEE
:10368000AA4270D03E46AA4277D17DE00268106A15
:1036900001242502166AAE4316626402A0438C68B8
:1036A0002702074350680C680194D569DF4CA24299
:1036B00073D03E46A2427CD182E00268156A0124A2
:1036C0002003166A8643166250688E6801960E685B
:1036D0000096D769D54EB24206D0D54EB24203D03D
:1036E000D44EB24200D086E0A603B0434E69B60184
:1036F000064381E00268146A92487330156A0540F7
:10370000156257688D6801950D680095566DC74D17
:10371000AA4206D0C64DAA4203D0C64DAA4200D046
:1037200084E00740486905023D4380E00268156A6D
:1037300001242005166A8643166250688E68019639
:103740000E680096576DFB4EB24206D0FA4EB2425A
:1037500003D0FA4EB24200D085E0A604B0434E69D1
:10376000B602064380E0C026B743CE683601402546
:10377000AE43F04D3E43AA4206D0EF4DAA4203D0DD
:10378000EE4DAA4200D089E00325AD02A8434D6961
:103790008F692F43BD00054381E00326B602B7437E
:1037A0006A4CFF3CCE6836022640E24C3E43A242C1
:1037B00006D0E14CA24203D0E04CA24200D086E009
:1037C00003242403A0434C698F6927433C0104432D
:1037D0007EE03446BA4206D0D74EB24203D0D74E2E
:1037E000B24200D089E003263602B0434E698F69A9
:1037F00006433E4382E0064610461C305660524E59
:103800003740009E36023E43D6614E68166466031A
:10381000B543019E36032E431662E502D6692E4358
:10382000D661A402D569A543D5614DE03D46104659
:1038300054305560434DED1C2E40009D2E4356657F
:103840004D68956501256D04AC43019D2D0425430C
:103850001562546D082525435565546D0425AC4308
:10386000546509695EE00646104654305660344E91
:103870003740009E36023E4356654E68D665660563
:10388000B543019E36052E431662E502566D2E4362
:103890005665A402556DA543556515E005461046CD
:1038A00018305560284D2C40019D2D02254395610F
:1038B0004C68946316620124E50296692E43966172
:1038C000A4029569A5439561096909022AE00446A5
:1038D00010461C3054601B4C2540019C2543D5618B
:1038E0004C68D4631662D46908252543D561D46930
:1038F0000425AC43D461096914E00646104618302B
:103900005660104E3540019E354395614D685563B4
:103910001462946908252543956194690425AC4394
:103920009461096902680A4302600020002119704D
:1039300002B0F0BD002C01400048014000440140AD
:10394000FF8FFFFE8CFFFEFFFF8CFFFEFFFBFFFFE4
:1039500070B5002828D0044605463C356878002814
:1039600004D100202870204600F068F8022068701A
:1039700021680E6801208307994205D0DE4A9142F2
:1039800002D0B44A914211D170229643A2683243C8
:10399000AF4EB1420EDC994215D0AE4B994212D0D7
:1039A000254B99420FD03FE0012070BD3246A84E12
:1039B000B142F0DDD04B994205D0D04B994202D0B4
:1039C000CF4B994230D103231B029A4323691343FF
:1039D00080229343A2691A430A60E268CA6262685D
:1039E0008A62F54A914205D0F44A914202D0F44AE3
:1039F000914201D162690A6322463E3244344861F1
:103A00000B69DB0702D00B6983430B6120711070D7
:103A100050709070D0701071507120706070A070F4
:103A2000E0706870002070BD1346D1E7002C0140A3
:103A300000480140004401400020004070477047AA
:103A400070B502463E32002915D00C1F0223DC411E
:103A5000032C30D8A50001A67559AF466D3A000871
:103A6000833A00088F3A0008AD3A0008551C2D78BB
:103A7000012D0AD10FE01378012B06D10223137018
:103A800025E0951C2D78012D05D0012070BDD51C99
:103A90002D78012DF9D1032C12D8C0467C4424790D
:103AA0006400A744010F1113537010E0151D2D7809
:103AB000012DEAD1EFE7551D2D78012DEBD0E4E77C
:103AC000537104E0937002E0D37000E013711F2281
:103AD0001140012213468B400168086A984308622E
:103AE000086A184308625A4881420FDDB248814291
:103AF00005D0B24B994202D0B14B994215D1D303B4
:103B00004C6C1C434C6481420FD105E0900781420C
:103B100002D05048814208D188684F4B03400020B2
:103B2000062B06D01404A34203D008681043086093
:103B3000002070BD002C01400048014000440140BD
:103B400070B502463E32002915D00C1F0223DC411D
:103B5000032C25D8A50001A67559AF466D3B00087A
:103B6000833B00088D3B0008973B0008551C2D78CF
:103B7000012D54D118E01378012B50D1022313707A
:103B800023E0951C2D78012D49D10DE0D51C2D7811
:103B9000012D44D108E0151D2D78012D3FD103E002
:103BA000551D2D78012D3AD1032C07D87C4424795A
:103BB0006400A74401050709537006E0537104E04F
:103BC000937002E0D37000E0137102230A46DA41D9
:103BD000032A24D892001D4B9B580268D0681843D2
:103BE000D0601F200140012318468840116A81439C
:103BF0001162116A014311621548824211DD6E485B
:103C0000824205D06D498A4202D06D498A4217D15D
:103C1000D903546C0C435464824211D107E0012053
:103C200070BD9807824202D00A48824208D190684B
:103C3000094901400020062906D01C04A14203D0F6
:103C4000106818431060002070BDC046245B000857
:103C5000FF2B0140000400400700010070B51F2346
:103C60000B40012214469C4003681D6AA5431D6257
:103C70001C6A1C624F4C504DAB4205D04F4DAB42BD
:103C800002D04F4DAB4206D11D6A254203D11D6AB9
:103C90004C4E35420AD01D6A25420ED11C6A494D50
:103CA0002C420AD11C6894431C6006E0D5035E6C6C
:103CB000AE435E641D6A2542F0D03E300223D941F6
:103CC000042909D87944097949008F4402080B0E68
:103CD00011000270002070BD4271002070BD427062
:103CE000002070BD8270002070BDC270002070BDC9
:103CF0000271002070BDC046002C01400048014008
:103D000000440140F0B502230A46DA41032A40D8B4
:103D10009300274CE4580568EE682640EE601F24A7
:103D20002140012426468E40296AB1432962296A2E
:103D300029622049204EB54205D0204EB54202D01E
:103D40001F4EB5420AD12E6A0E4207D12E6A1D4F70
:103D50003E4203D1E6036F6CB7436F642E6A0E4296
:103D600006D1296A174E314202D12968A143296040
:103D70003E30032A0FD801A1C9588F468D3D000857
:103D80009D3D0008A33D0008A93D000804700020E7
:103D9000F0BD0120F0BD44710020F0BD4470002052
:103DA000F0BD84700020F0BDC4700020F0BDC0469E
:103DB000345B000811110000002C01400048014054
:103DC0000044014044040000704700000222D14139
:103DD000032909D87944097949008F4401070B0F59
:103DE0000068343000687047002070470068383041
:103DF0000068704700683C300068704700684030D9
:103E00000068704770477047704770477047704749
:103E1000F0B58BB003460268D46920270125EE0275
:103E200031462F312140106809935C330893069284
:103E30009268202905970A9407920FD101463940CC
:103E400001231B071340C918044616D00998416F77
:103E5000002900D109E288470BB0F0BD31460F318F
:103E60000C42044609D02B46CE4921402D076F1C39
:103E7000079A1740791800D099E01022049421463F
:103E800011404B424B410A9E314611404C424C413D
:103E900009980746C16E491E4D1EA9412143194389
:103EA0003FD001250124A105079801404B424B4119
:103EB0003046F1022946069A00D519460029059E8A
:103EC00000D105E1010608D58021049A1140E205E0
:103ED000079B1340C91800D0B0E14022049911405B
:103EE0004B424B414106294600D51946002900D1D5
:103EF00045E1A107049A11404A424A41010229467C
:103F000000D51146002900D1A4E10499002900DB65
:103F1000A5E10024C10100D5A4E1002D00D0A4E159
:103F2000A5E10698026280681646400600D5D6E0F4
:103F300008994B8808884A88002A00D195E1984260
:103F400000D192E10A93EFF31083012282F31088EB
:103F50000924640139463D682F68A7432F6083F325
:103F60001088EFF3108382F310880C68A568C24FA5
:103F70002F40A76083F31088059B089C23630023D0
:103F80004B67CB66EFF3108382F310880A681468DE
:103F9000B443146083F3108802220A670A9A801AD5
:103FA00082B208461146FFF72EFF0BB0F0BD029714
:103FB000019503960A991E4619404B424B41310226
:103FC00021404D424D411D43069A05D10121116208
:103FD000089D6B6B0B436B630120079F3B4604906E
:103FE00003405D425D410A988107314600D529466C
:103FF000002906D1022111620898416B04250D4366
:1040000045635D425D410A98410731460ED5294618
:1040100000290DD1042111620898416B02230B4342
:1040200043630A980107099D15D505E00029F1D0E1
:104030000A980107099D0ED50298411E8841A106E4
:10404000314600D40146012905D1082111620898A2
:10405000436B0B4343630498810621404B424B4121
:104060000A98039908420DD01E46002E089E0CD1D6
:1040700003981062716B059801437163716B00299D
:1040800007D1F2E0002E089EF2D0716B002900D11A
:10409000EBE005980A9901400AD001990F400440CD
:1040A0003C4305D0696F002902D0284688472A681A
:1040B000706B28210140926840200240511800D0C6
:1040C00072E02846FFF7A3FE002070630BB0F0BD3E
:1040D000210511623846FFF799FE0BB0F0BD089C30
:1040E000606A006841688AB2002A00D1BDE0238876
:1040F0009A4200D3B9E03D4661800068800633D41F
:10410000EFF31081012080F310885D4A20322B6884
:104110001C6814401C6081F31088EFF3108180F359
:1041200010882A6893688343936081F31088EFF3C3
:10413000108180F310882A6893684024A343089C68
:10414000936081F31088059921630021E966EFF3FC
:10415000108180F3108828680268B243026081F3FE
:104160001088606AFDF72AFD022028672088618890
:10417000401A81B22846FFF746FE0BB0F0BDEFF3C0
:10418000108084F3108839680B6893430B6080F3C8
:1041900010880021B9670899CE62384600F050F9BE
:1041A0000BB0F0BD20010004EFF31081049E86F3F4
:1041B0001088092252012B681C6894431C6081F30B
:1041C0001088EFF3108186F310882A6893682A4CD0
:1041D0001C40946081F31088E96E01290BD1EFF344
:1041E0001081049A82F310882A6813681024A3436C
:1041F000136081F31088089C059921630021E9660A
:1042000069672968896849061FD5EFF31081049A08
:1042100082F310882A6893688343936081F310883F
:10422000606A002811D015498163FDF7FFFC002862
:104230001BD0606A816B88470BB0F0BDB96F002955
:1042400013D0384688470BB0F0BD2846FFF7DFFD96
:104250000BB0F0BD3846FFF7D8FD0BB0F0BDC10183
:1042600000D45AE62546002D01D00BB0F0BD3846EB
:10427000FFF7CAFD0BB0F0BDFEFFFFEFC14F000816
:10428000DFFEFFFFB0B5002830D004460546843578
:104290006868002804D100202870204600F028F823
:1042A00024206860206801680125A9430160A06A94
:1042B000002802D0204600F0B7FD204600F022FF83
:1042C000012811D00920C00221684A6882434A604F
:1042D00088682A22904388600868012202430A60A5
:1042E000204600F00BFE05462846B0BD0120B0BDBB
:1042F00070B586B0044600682249884201D006B0F5
:1043000070BDBA488268012105914B041A4382604E
:1043100082681A400092009A02680A4302600068AC
:1043200008400090002604960396022002900C207C
:10433000019000980520000701A9FDF73FFE124DEE
:10434000802010213522114B2B606A60A960EE603D
:1043500028616E61AE61EE612E622846FDF70EFDAA
:10436000002801D0FCF7E4FAAC62E5671C240321C5
:1043700000222046FDF77AFF2046FDF76BFF06B0CE
:1043800070BDC04600440040881200201C0002405E
:10439000F0B581B0044606465436706B202813D120
:1043A000012500290DD01346002A0AD00127380321
:1043B000A26882420CD1C8070AD02069002807D120
:1043C0003D46284601B0F0BD0225284601B0F0BDAB
:1043D00073800025F5633380216521207063E06FD1
:1043E000002814D0154AC262134A0263114A42637C
:1043F000856322682832FDF741FD002807D0102090
:10440000F063202070633D46284601B0F0BD20686F
:1044100040210162EFF31080012181F310882168AF
:104420008A68802313438B6080F31088284601B08C
:10443000F0BDC046D94F0008FB500008B15000083D
:1044400070477047FEE70000B0B584B03C212548B6
:10445000002545542C214554C56401210563416361
:104460008563456285620322C261857605830824DF
:104470001D4A031D1D774B05890702604160856059
:10448000C56003614461039502950195FDF72EF91E
:10449000002801D0FCF74CFA0395029513480190CF
:1044A000104801A9FCF7AAFE002801D0FCF740FA49
:1044B000042002900E4801900A4801A9FCF79EFED4
:1044C000002801D0FCF734FA02940A48019005480C
:1044D00001A9FCF793FE002801D0FCF729FA04B0EB
:1044E000B0BDC046A41100200024014010000010FF
:1044F000200000144000001880B508480121016226
:10450000002141618161818005490160FDF700FB67
:10451000002801D0FCF70CFA80BDC046081200202C
:1045200000300240B0B582B00E48026801210A4353
:104530000260006808400190019809240025204687
:104540002A46FDF793FE2046FDF784FE0A24032148
:1045500020462A46FDF78AFE2046FDF77BFE02B084
:10456000B0BDC04638100240F0B587B000240694B4
:1045700082480168042211430160016811400191E1
:1045800001990168012529430160016829400191D1
:1045900001990168022211430160006810400190F6
:1045A0000198AF03124E304639462A46FDF7E5FD25
:1045B000059404950395029702AF30463946FDF7FE
:1045C000FDFC0495212000040390E803029030468E
:1045D0003946FDF7F3FC0726304629462246FDF70B
:1045E00045FE3046FDF736FE07B0F0BD3410024000
:1045F00000080050F0B5A1B000241A941994189442
:1046000016941594149413941294119410940F9476
:104610000E940D9468463421FBF758FEA348802180
:104620000126544D2A4631322023534F07604460FF
:10463000836003460C3354C38161FEF7C3FC00283A
:1046400001D0FCF775F930031790984817A9FEF7C9
:10465000F3FD002801D0FCF76BF99448FFF778F9D7
:10466000002801D0FCF764F916941594702714976C
:104670008E4814A9FEF7E4FB002801D0FCF758F996
:104680000E9460200D900F94109411941294139432
:1046900086480DA92246FEF7A5FF002801D0FCF7A9
:1046A00047F982480DA90422FEF79CFF002801D09B
:1046B000FCF73EF97D480DA90822FEF793FF00287C
:1046C00001D0FCF735F90E950D9778480DA90C220D
:1046D000FEF788FF002801D0FCF72AF90C940B9410
:1046E0000A940894079406940494FF20039002947B
:1046F0007006099070030590B00201900F20C70169
:10470000384680300090694D69462846FEF790FA99
:10471000002801D0FCF70CF928681749884201D01D
:1047200021B0F0BD15480168314301600168314096
:104730001C911C99016802263143016000683040D9
:104740001B9020961F941E941D961C971B98052065
:1047500000071CAD2946FDF731FC20961F941E94DE
:104760001D9603201C9006482946FDF727FC21B022
:10477000F0BDC046CE180000002C014034100240AD
:1047800000040050B0B58CB01E480024846107219D
:10479000E2430125AB07036041608460C2600461AD
:1047A0000B940A940994039402940194FEF70AFC72
:1047B000002801D0FCF7BCF828030890F54808A9A8
:1047C000FEF73AFD002801D0FCF7B2F8052007906B
:1047D0000A20069005940494EE4804A9FEF786FA90
:1047E000002801D0FCF7A4F8039450200190E94878
:1047F00001A9FEF725FB002801D0FCF799F80CB0C1
:10480000B0BDC0463013002010B50B4800210C226B
:104810000A4B0B4C046043608160C16001614261DE
:104820008161C161016241628162FFF72BFD002855
:1048300001D0FCF77DF810BD7C13002040420F0032
:1048400000440040FEE7704770470000C1178843EE
:104850004B218901884200DB0846CA490968486340
:104860007047C046C11788434B218901884200DB4D
:104870000846C449096888637047C046C117884321
:104880004B218901884200DB0846BE490968C8639C
:104890007047C046C11788434B218901884200DB1D
:1048A0000846B849096808647047C046E412002009
:1048B000F0B581B00C46234911C108398C602249FA
:1048C00001F00CF805463F200106204601F006F8ED
:1048D00006462846314601F059F807461948C76090
:1048E0003046294600F060FF05460120C0076840B9
:1048F0001449086100263846314600F032FF411E57
:10490000884147002046314600F02BFF411E884178
:104910003C182846314600F03CFF411E884180008B
:104920002018401E052804D80849085C4421054A7F
:104930005054044C2046FCF773F9204600F008F868
:1049400001B0F0BD24100020D7B35D3F9C5A000891
:10495000F0B581B004464420205C401E05281DD8D7
:104960007844007940008744021C334A6178256B03
:104970002846FBF761FD4B4E7081E16A284600F046
:1049800013FF0546FBF758FD3081616A284600F0A9
:104990000BFFFBF751FD0546F08074E04148C588E8
:1049A00071E0256B2846FBF747FD3E4F7881E16AB1
:1049B000284600F0F9FE0646FBF73EFD0546F88066
:1049C000E169304600F0F0FEFBF736FD38815AE031
:1049D000266B3046FBF730FD0546324FF880206AE3
:1049E000314600F0E1FE0646FBF726FD7881E169DD
:1049F000304600F0D9FEFBF71FFD388143E0266BFF
:104A00003046FBF719FD0546264FF880206A3146EF
:104A100000F0CAFE0646FBF70FFD3881A16930465B
:104A200000F0C2FEFBF708FD78812CE0256B2846DC
:104A3000FBF702FD1B4F3881A16A284600F0B4FE47
:104A40000646FBF7F9FC0546F880A169304600F000
:104A5000ABFEFBF7F1FC788115E0256B2846FBF7F0
:104A6000EBFC104E3081A16A284600F09DFE054601
:104A7000FBF7E2FC7081616A284600F095FEFBF7C7
:104A8000DBFC0546F080A16C28B288470820054D64
:104A9000285EE16C88470A20285E216D884701B0B6
:104AA000F0BDC0460800002080B5FDF773FB80BD57
:104AB000F0B593B000240B940A94099408940794D9
:104AC000069401267002FDF7EDFB7007129003209B
:104AD000410611914004109020200F9010200E905C
:104AE00002250D950C9540200A90099430020890FB
:104AF000059505A8FDF74AFE002810D0EFF31080B9
:104B000072B6B403154D164E28462146FDF72DFB0F
:104B1000F807800F305AFDF717FA7F1CF4E703946B
:104B200007200190B4030494029501A82946FDF7DB
:104B3000DBFC00280FD0EFF3108072B6074D084E53
:104B400028462146FDF711FBF807800F305AFDF784
:104B5000FBF97F1CF4E713B0F0BDC046000800501D
:104B60001C5B00087047000080B50448044903221C
:104B7000FCF74AFFAB48FEF745FC80BDA4110020BE
:104B800094110020E412002080B50248FEF73AFCA0
:104B900080BDC04630130020B0B5056801229407DF
:104BA000A04205D0604B984202D0604B98420FD192
:104BB00070239D434B682B43204DA8420CDCA04240
:104BC00013D05A4CA04210D01D4CA0420DD032E060
:104BD0002B461A4DA842F2DD534CA04205D03E4C64
:104BE000A04202D03D4CA04225D103242402A3437D
:104BF000CC681C4380239C434B69234303608B6830
:104C0000C3620B688362484B984205D0324B98428E
:104C100002D0324B984209D10969016342610169AE
:104C2000C90707D0016991430161B0BD42610169C3
:104C3000C907F7D1B0BD1C46DCE7C046FF2B0140D9
:104C40000020004010B51F230B4001219940046A49
:104C50008C4304629A40016A1143016210BD000056
:104C6000F0B581B0026A036A1024A34303622023D3
:104C70009A438B681E01164345680A680092826950
:104C8000294FB84203D03446B84209D10EE0C024BF
:104C9000A643CC68240140239C433443B84205D04A
:104CA0000D4B984202D00D4B984208D103239B0232
:104CB0009D434B698E691E43B6002E4300E02E468D
:104CC0004660074B1A40009B1B02134383614968EF
:104CD0008163046201B0F0BD00480140004401401E
:104CE000FF8CFFFEF0B5046A056A0126B543056234
:104CF0008569B707B84205D00B4FB84202D00B4FB9
:104D0000B84203D10326B543154300E03543F022F2
:104D100095431A01D2B2AA1882610A221140944323
:104D200061180162F0BDC046002C01400004004043
:104D3000F0B581B03B4C2068002545638563C563B1
:104D400020462946FEF78AFF042620463146FEF714
:104D500085FF082720463946FEF780FF2046294672
:104D6000FEF7F2F820463146FEF7EEF820463946C7
:104D7000FEF7EAF80C212046FEF7C4FF2046FEF7B6
:104D80003DFAFBF787FD01B0F0BDC046F0B581B03C
:104D9000244C0025012822D120462946FEF750FE4A
:104DA000042620463146FEF74BFE082720463946AA
:104DB000FEF746FE20462946FEF772F820463146A9
:104DC000FEF76EF820463946FEF76AF80C212046B9
:104DD000FEF7B6FE2046FEF7E3F901B0F0BD20462F
:104DE0002946FEF73BFF042620463146FEF736FFF4
:104DF000082720463946FEF731FF20462946FEF7B0
:104E0000A3F820463146FEF79FF820463946FEF7C4
:104E10009BF80C212046FEF775FF2046FEF7EEF9C1
:104E200001B0F0BDE4120020B0B5816A0A070CD4CD
:104E3000CA0714D18A071CD44A0724D4CA062CD422
:104E40008A0634D44A063CD44CE00122D2030368DB
:104E50005C689443826B22435A60CA07EAD00122FD
:104E6000520403685C689443C26A22435A608A070A
:104E7000E2D50122120403685C689443026B22436A
:104E80005A604A07DAD50122920403685C689443A9
:104E9000426B22435A60CA06D2D50122120303682C
:104EA0009C689443C26B22439A608A06CAD5012249
:104EB000520303689C689443026C22439A604A063A
:104EC00010D501221305026854689C43456C2C439D
:104ED00054609D4206D103235B0554689C43836C58
:104EE00023435360090607D50121C90402685368AA
:104EF0008B43C06C18435060B0BD0000F0B583B068
:104F00000446064684360027F760FDF73FF903465E
:104F10002068016809071FD52848009001200290E9
:104F20004105002220461D4600F0EEF9002811D070
:104F3000EFF31080029981F3108821680A688023BA
:104F40009A430A6080F31088202070600320377035
:104F500003B0F0BD20682B460068400725D51748F0
:104F600000900125A9050022204600F0CDF9002877
:104F70001BD0EFF3108085F31088092149012268C6
:104F800013688B43136080F31088EFF3108085F370
:104F9000108821688A68AA438A6080F310882020DC
:104FA000B0600320377003B0F0BD20207060B060A7
:104FB000E76627673846377003B0F0BDFFFFFF0193
:104FC00080B5806A0146563100220A81562142523C
:104FD000FEF71DFF80BD0000F0B581B0806A88211A
:104FE0004558014688314F68024656320468A66823
:104FF000360621D5212D1FD100241480EFF3108314
:105000000093012585F3108806683C463768C02365
:105010009F4337602746009B83F31088EFF310838C
:1050200085F31088EC050568AE68A643AE6083F38F
:10503000108820230B600468A3685B062DD5222FFF
:105040002BD100231381EFF31084012282F3108807
:1050500009256D0106683768AF43376084F310880F
:10506000EFF3108482F310880568AE680F4F374065
:10507000AF6084F31088C46E012C0AD1EFF3108462
:1050800082F31088026815681026B543156084F312
:10509000108820224A604367C3668A68102313433E
:1050A0008B60FEF7B4FE01B0F0BDC046FEFFFFEF1F
:1050B000B0B50146806A0968096889061AD4562184
:1050C00000224252EFF31081012282F3108803681C
:1050D0009C688025AC439C6081F31088EFF31081BD
:1050E00082F310880068026840231343036081F351
:1050F0001088B0BDFFF7A4F9B0BD80B5806AFFF796
:10510000A0F980BDF0B581B004460268106871490D
:105110000140A06823690343606918430843E369B9
:10512000184310600327380351688143E06808433F
:105130005060A169684DAA4202D0206A084300E08D
:1051400008469168654E0E4006439660D06A0F216E
:105150008843616A0843D062614882420BD0AA4208
:105160000BD06048824210D15F4800688007000F72
:105170005E4E36580AE0002608E05B480068000AE8
:105180000C2606405948865900E010262046683013
:1051900000905748AA4216D00125EA03934226D12F
:1051A000082E00D98CE0C0467E4436797600B7449C
:1051B00004875987528787875800FDF791FA00289E
:1051C0004DD0616A4EE00125082E00D978E0C04636
:1051D0007E4436797600B744047324731C7373736A
:1051E0002200FDF77DFA002817D0616A19E0082E29
:1051F00066D8C0467E4436797600B74404614F6174
:10520000486161614E00FDF76BFA002843D0616A86
:1052100044E0FDF777FA0028E7D1002550E00120AF
:10522000C0034900334A515A00F0A0F9626857435D
:10523000B84245D31103884242D8010E56080002F5
:10524000002380195941FAF79BFF2C4941182C4A39
:10525000914235D231E0FDF755FA0028B1D1002551
:105260002EE010464900234A515A00F07FF94000D1
:1052700061684A08101800F079F90246103A1E4990
:105280008A421DD201400007400F084315E0FDF798
:1052900039FA0028BBD1002512E010464900154A12
:1052A000515A00F063F961684A08101800F05EF97D
:1052B00001461039104A914202D22168C860002587
:1052C00010480099086000206067A067284601B078
:1052D000F0BDC046F369FFCF00800040FFF4FF112E
:1052E000004400400038014054100240445B000874
:1052F0000024F400045B0008F0FF000000FDFFFF45
:1053000000FD0F0001000100F0B585B01F461546F5
:105310000E460368D9693140891B4A424A4100213F
:10532000AA4222D10A9C002C22D00391611C24D1D4
:10533000D9693140891B4A424A41AA4231D1D969CF
:105340003140891B4A424A41AA422AD1D969314097
:10535000891B4A424A41AA4223D1D9693140891B5B
:105360004A424A41AA42E3D01BE0084605B0F0BDDC
:10537000FCF70CFF032005B0F0BD402E049001D0D7
:10538000802E14D1FCF702FFC01BA0420CD8049859
:1053900000680168C0693040801B41424141A94218
:1053A000F0D0039805B0F0BD032005B0F0BD843007
:1053B000019001200090C002029006E0C8693040D0
:1053C000801B41424141A942EBD1FCF7DFFEC11BEA
:1053D0000320A1423FD8049909680A685207EDD515
:1053E000CA69120739D4CA69029B1A42E6D0029AE6
:1053F0000A62EFF31082012181F3108809235B0117
:10540000049C246825689D43256082F31088EFF38F
:10541000108281F31088049B1B689C682A4D2540EC
:105420009D60049B82F31088DA6E012A0BD1EFF3A2
:10543000108281F3108819680B681024A3430B6055
:10544000049B82F310882021019CA1600022DA666F
:105450005A672270E16005B0F0BD08250D62EFF3D8
:105460001081009880F3108809225201049B1B6868
:105470001C6894431C6081F31088EFF3108180F363
:105480001088049A126893680F4C1C40049B946027
:1054900081F31088D96E01290CD1EFF3108101221C
:1054A00082F310881A6813681024A3431360049BC6
:1054B00081F310882021019A91600021D9665967F3
:1054C0001170D56005B0F0BDFEFFFFEF80B502485A
:1054D000FEF79EFC80BDC0467C13002001218A039C
:1054E000801802B2920E801800B2801180001E4A0D
:1054F0001018C90240587047FCF756FEFFF7D8FA5B
:10550000FFF732F8FFF70EF8FFF774F8FFF77CF9B2
:10551000FEF79AFFFFF736F9FEF7EEFFFFF708FCFC
:105520000848FDF74FFC0025074C084E0120810379
:105530002046FCF71AFEA807400F305AFCF704FD7E
:105540006D1CF3E730130020000800501C5B0008BE
:10555000810E401800B28011800003490818012113
:10556000C90240587047C0462000002043088B42C3
:105570001AD3002203098B4279D3030A8B425ED3EC
:10558000030B8B4242D3030C8B4227D30902FF2229
:1055900012BA030C8B4202D31212090203D0030B7E
:1055A0008B4233D31AE0D3E0411A8041401C70474C
:1055B00003460B4371D443088B42F5D30022030901
:1055C0008B4254D3030A8B4239D3030B8B421DD336
:1055D000030C8B4202D394466EE0090AC30B8B4244
:1055E00001D3CB03C01A5241830B8B4201D38B03EF
:1055F000C01A5241430B8B4201D34B03C01A524194
:10560000030B8B4201D30B03C01A5241C30A8B42D6
:1056100001D3CB02C01A5241830A8B4201D38B02C1
:10562000C01A5241430A8B4201D34B02C01A524165
:10563000030A8B4201D30B02C01A5241CDD2C309D7
:105640008B4201D3CB01C01A524183098B4201D353
:105650008B01C01A524143098B4201D34B01C01A3E
:10566000524103098B4201D30B01C01A5241C308B6
:105670008B4201D3CB00C01A524183088B4201D325
:105680008B00C01A524143088B4201D34B00C01A11
:105690005241411A524110007047CA0F00D049428E
:1056A000031000D34042534000229C4603098B4222
:1056B0002DD3030A8B4212D38901FC2212BA030AAA
:1056C0008B420CD3890192118B4208D3890192112C
:1056D0008B4204D3890137D0921100E08909C309B4
:1056E0008B4201D3CB01C01A524183098B4201D3B3
:1056F0008B01C01A524143098B4201D34B01C01A9E
:10570000524103098B4201D30B01C01A5241C30815
:105710008B4201D3CB00C01A524183088B4201D384
:105720008B00C01A5241D9D243088B4201D34B009F
:10573000C01A5241411A00D20146524110466346F6
:105740005B1000D34042704763465B1000D3404279
:1057500001B50021004201D0C9430846C046C046F9
:1057600002BD10B500F066F8EFF300804000800F36
:10577000012800D0002010BD10B500F085F8EFF32F
:1057800000804000800F012801D0012010BD0020C2
:1057900010BD10B500F078F8EFF30080800001D460
:1057A000012010BD002010BD70B50125ED070400DB
:1057B0004C4020D4441A01D2001B0919C60D4B00DD
:1057C000F2B2FF2A29D01B0E2CD000020C02284373
:1057D0002C43D31ADC40051910D2280A02D3401CEE
:1057E0006D0611D0761EF6058019FF2A00DA70BD0D
:1057F000C00DC00570BD694000F0CEF80120054322
:10580000C541521C761CE8E764089C40C901614010
:105810008900E7D10124A043E4E71B0E440200D035
:10582000034870BD002AFCD1C00FC00770BD00BF87
:105830000000C07F0123DB0502000A430DD4DA42D9
:1058400003D49A4207D488427047D84214D4D9422C
:1058500012D48842704780427047DA4203D59A4298
:10586000F9D5814270475B004200DA4204D24A0017
:10587000DA4201D28142704710B5024AFAF732FE8D
:1058800010BD00BF090013040123DB0502000A4319
:105890000DD4DA4203D49A4207D488427047D842E2
:1058A00014D4D94212D48842704780427047DA42F9
:1058B00003D59A42F9D5814270475B004200DA4233
:1058C00004D24A00DA4201D28142704710B5024A3E
:1058D000FAF708FE10BD00BF0900160470B54200BB
:1058E00064414B005C41120E39D01B0E38D0FF2AA8
:1058F0003CD0FF2B3AD0D2187F3A40024902400AEE
:10590000490A4518ED0106004E43000A090A4843BA
:105910000104731A4019190C4318990F04D05B083D
:10592000012149075B1A521CD80904D3401CF50316
:1059300001D19D0607D0FF2A08D2D50506D0E4077D
:105940002043401970BD0125A843F4E7002A01DC7B
:10595000E00770BD2402FF202043C00570BD1B0E70
:10596000FF2A03D0FF2B01D0E00770BDFF263606CB
:105970004500B54206D84D00B54203D8D218FF2ADB
:1059800000D0E7E7004870BD0000C07F70B501257A
:10599000ED0704004C4022D4441A02D26C40001B94
:1059A0000919C60D4B00F2B2FF2A4BD01B0E50D086
:1059B00000020C02A8432C43D31ADC40051B05D57A
:1059C000AD0019D36D08761E521E37D0F605280A91
:1059D00001D2801970BD70416D0603D070BD694061
:1059E000FFF7E8FE9C4009026140490001D0401EDB
:1059F00070BD0124A04370BD6D081DD001202B0C8B
:105A000001D12D0410302B0E01D12D0208302B0FA7
:105A100001D12D01001DAB0F01D1AD00801CEB0F9A
:105A200001D16D00401C361A121A6D00680AF50586
:105A30004019012A02DB70BD002070BDC036300A5B
:105A4000C00770BD1B0E440201D1FF2B00D10248DC
:105A500070BD002AF0D070BD0000C07F81828384B9
:105A600085868788898B8C8D8E8F9192939596975A
:105A7000999A9C9D9FA0A2A3A5A7A8AAACAEB0B2DC
:105A8000B3B5B7B9BCBEC0C2C5C7C9CCCED1D4D7D7
:105A9000D9DCDFE2E6E9ECF0F3F7FAFE02060104F6
:105AA00003050000000000000000000000000000EE
:105AB00000000000000000000000000000000000E6
:105AC00000000000010000000200000003000000D0
:105AD00004000000060000000700000008000000AD
